:20006200E582900001F0748055C6FFE0FEBE0121ADBE74FB5DF5BE43C640E5C630E6FB7467
:20008200494FF5C674494FFDEDB5C6FC43BE04802BEE7028AEBE74FB5EF5BEAEC674BF5E77
:1D00A200F5C6E5C620E6FB8FC68F057E00ABC67C00EBB505F4ECB506F043BE04222F
:2000BF00AFF0AE83E582900204F0EEA3F0EFA3F0900207E4F0900204E0FDA3E0FEA3E0FF7E
:2000DF00900202E0FBA3E0FC79007A00C3E99BEA9C505EC003C004E92DF8EA3EFB8F0488D2
:2000FF00828B838CF0121C03F8900207E0FCE86CF0750F08D004D003900207E0F830E71424
:20011F00C003C004E828FC900207749B6CF0D004D0038007E828F8900207F0150FC374808F
:20013F00850FF063F08095F040CE09B9009E0A809B900207E0F582227E007F00900208E4A4
:20015F00F0A3F08E057C0090020AECF0EDA3F07C007D0090020AE0FAA3E0FB900208E0F897
:20017F00A3E0F9E86202E96203EB30E7178802E9CA25E0CA33FB90020874216AF074106B7F
:20019F00A3F0800FE9C825E0C833F9900208E8F0E9A3F090020AE0FAA3E0CA25E0CA33FBC6
:2001BF0090020AEAF0EBA3F00CBC00010DC3EC9408ED9400409D8E04EFCC25E0CC33FDEC73
:2001DF002402FCED3400FD900208E0FAA3E0FB8C828D83EAF0EBA3F00EBE00010F74FF2FDA
:2001FF00400302015B22AFF0AE83E58290020EF0EEA3F0EFA3F090021174FFF0A3F0900228
:20021F000EE0F511A3E0F512A3E0F51390020CE0FBA3E0FC79007A00C3E99BEA9C5061C08D
:20023F0003C004E92511F8EA3512FBAC1388828B838CF0121C03F83395E0880F75100090C5
:20025F000211E0FBA3E0F87F00E50F6200E51062078B047B00EFC825E0C833FFE82402F520
:20027F0082EF3400F583E0FEA3E0FF900211EE6BF0EF6CA3F009B900010AD004D00380987C
:20029F00900211E0FEA3E08E82F58322E582900213F0E0FF30E703020346C3748F8FF063A9
:2002BF00F08095F05003020346EF240A83F582EF241483F583E473F6FB00050A0F14191EA2
:2002DF0023282D32373C4102020303030303030303030303030303758215804E75823180F1
:2002FF00497582328044758223803F758234803A75822580357582268030758216802B7520
:20031F00821A8026758219802175822A801C75820B801775822C801275820D800D75820E2A
:20033F00800875821C800375820022E582900217F0E0FFBF0B030204E4BF0D0302051BBF21
:20035F000E03020536BF15028048BF1603020474BF19030204ACBF1A03020490BF1C030261
:20037F000551BF2303020404BF250302043CBF2603020458BF2A030204C8BF2C03020500FB
:20039F00BF31028028BF3202803FBF3402807202056C900214E0FDA3E0FEA3E0FF8D828E75
:2003BF00838FF0E4121BE8758200020584900214E0FDA3E0FEA3E0FF8D828E838FF0740107
:2003DF00121BE8758200020584900214E0FDA3E0FEA3E0FF8D828E838FF07402121BE87542
:2003FF008200020584900214E0FDA3E0FEA3E0FF8D828E838FF07403121BE8758200020522
:20041F0084900214E0FDA3E0FEA3E0FF8D828E838FF07404121BE87582000205849002145F
:20043F00E0FDA3E0FEA3E0FF8D828E838FF07405121BE8758200020584900214E0FDA3E008
:20045F00FEA3E0FF8D828E838FF07406121BE8758200020584900214E0FDA3E0FEA3E0FFC7
:20047F008D828E838FF07407121BE8758200020584900214E0FDA3E0FEA3E0FF8D828E8306
:20049F008FF07408121BE8758200020584900214E0FDA3E0FEA3E0FF8D828E838FF0740909
:2004BF00121BE8758200020584900214E0FDA3E0FEA3E0FF8D828E838FF0740A121BE87559
:2004DF008200020584900214E0FDA3E0FEA3E0FF8D828E838FF0740B121BE8758200020539
:2004FF0084900214E0FDA3E0FEA3E0FF8D828E838FF0740C121BE87582008069900214E039
:20051F00FDA3E0FEA3E0FF8D828E838FF0740D121BE8758200804E900214E0FDA3E0FEA31B
:20053F00E0FF8D828E838FF0740E121BE87582008033900214E0FDA3E0FEA3E0FF8D828EBA
:20055F00838FF0740F121BE87582008018900214E0FDA3E0FEA3E0FF8D828E838FF0E41238
:20057F001BE875820122AFF0AE83E582900220F0EEA3F0EFA3F090021DE0FDA3E0FEA3E0D3
:20059F00FF8D828E838FF0E4121BE8A3121BE8900225F0A3F0900223F0A3F0900220E0F5F4
:2005BF002BA3E0F52CA3E0F52D852B21852C22852D2390021AE0F524A3E0F525A3E0F5264F
:2005DF00900218E0F8A3E0F9882EC52E25E0C52E33F52FE4F527F528C3E527952EE52895B5
:2005FF002F4003020799852729E528C313C52913C529F52AA829C825E0C833F9E8B5272C80
:20061F00E9B52828E5292521F8E52A3522F9AC23888289838CF0121C03F8C4540F30E3025C
:20063F0044F0F8900227740F58F0801DE529252BFAE52A352CFBAC2D8A828B838CF0121CEE
:20065F0003FA900227740F5AF0900227E0F582C007C006C0051202ABAC82D005D006D00727
:20067F00900223E0FAA3E05403A2E0CA13CA13A2E0CA13CA13CAFB90022374C05AF0EBA3F4
:20069F00F0900223E0FAA3E0FBECF93395E0FC900223E94AF0EC4BA3F0900225E0FBA3E0FE
:2006BF00FC90022574062BF0E43CA3F0900225E0F529A3E0F52AC3E5299408E52A648094D5
:2006DF0080500302078EE52924F8FBE52A34FFFC900223E0F529A3E0F52A8BF005F0A82998
:2006FF00E52AFA3392D28008A2D2EA13FAE813F8D5F0F588308D828E838FF0121C03F9A377
:20071F00121C03FAE92524F9EA3525F8AA26898288838AF0E530121BE88D828E838FF012ED
:20073F001C03F9A3121C03FA09B900010A8D828E838FF0E9121BE8A3EA121BE8900225EB06
:20075F00F0ECA3F0900225E0FBA3E08BF005F07B017C008006EB2BFBEC33FCD5F0F71BBB4A
:20077F00FF011C900223EB5529F0EC552AA3F00527E4B5270205280205F7900225E0FBA3E4
:20079F00E0FC4B700302084F8BF005F079017A008006E929F9EA33FAD5F0F7E924FFF52E50
:2007BF00EA34FFF52F900223E0F8A3E0FA900223E52E58F0E52F5AA3F07408C39BFBE49C69
:2007DF00900223E0F9A3E0FA8BF005F0AB01AC028006EB2BFBEC33FCD5F0F7900223EBF027
:2007FF00ECA3F0900223E0FBA3E08D828E838FF0121C03FAA3121C03FCEA2524FAEC35253B
:20081F00F9AC268A8289838CF0EB121BE88D828E838FF0121C03FBA3121C03FC0BBB0001F8
:20083F000C8D828E838FF0EB121BE8A3EC121BE822AFF0AE83E582900230F0EEA3F0EFA32C
:20085F00F0900233E4F0A3F0900237F0900238F0900235F0A3F0900239F090023AF0900297
:20087F0030E0F533A3E0F534A3E0F53590022AE0FAA3E0FBA3E0FC900228E0F8A3E0F9E443
:20089F00F531F532C3E53198E5329940030209FAC000C001900233E0F8A3E0880178009051
:2008BF000233E8F0E9A3F0E5312533F8E5323534F9AF35888289838FF0121C03F89002334A
:2008DF00E0FEA3E0FFE83395E0FD900233E84EF0ED4FA3F0900235E0FEA3E0FF90023574F0
:2008FF00082EF0E43FA3F0900233E0F536A3E0F53790023AE0F538900235E0F539A3E0F558
:20091F003AD001D000C3E5399406E53A6480948050030209DFE53924FAFEE53A34FF8EF004
:20093F0005F0AE36E537FF3392D28008A2D2EF13FFEE13FED5F0F5900237EEF053063F9088
:20095F000237EEF09002147437F07402A3F0E4A3F08E82C004C003C002C001C00012034A67
:20097F00D000D001D002D003D004900238E0C454F0F0E0FF74F05FF0900237E0FF90023898
:20099F00E0FE4FF0900239E0FF74016FF0E0FF7020C000C001E5382AFDE43BFE8C07900227
:2009BF0038E08D828E838FF0121BE80538D001D000E53924FAF539E53A34FFF53A02092454
:2009DF0090023AE538F0900235E539F0E53AA3F00531E4B5310205320208A390022DE0FD16
:2009FF00A3E0FEA3E0FF90023AE0FC3395E0FB8D828E838FF0EC121BE8A3EB121BE822AF76
:200A1F0083E58290023BF0EFA3F090023BE0FEA3E0CE25E0CE33CE25E0CE33FF7C007D00C0
:200A3F00C3EC9EED64808FF063F08095F050157AFF7BFF001ABAFF011BEA4B70F60CBC00F8
:050A5F00DF0D80DC2228
:040A6400120A9422BC
:200A6800D2AF22C2AF22A2AFE433FE7F00C2AF8E828F8322AF83E58290023DF0EFA3F09034
:0C0A8800023DE0FEA3E04E24FF92AF22EE
:200A940075820012006222AF83E58290023FF0EFA3F090023FE0FEA3E0C313CE13CEFF9093
:200AB400023FEEF0EFA3F090023FE0FEA3E0FFC374019EE49F502000000000000000000087
:200AD4000090023FE024FFFEA3E034FFFF90023FEEF0EFA3F080D022AF83E582900241F07C
:200AF400EFA3F0900241E0FEA3E0FFEE24FFFCEF34FFFD900241ECF0EDA3F0EE4F6008909D
:1E0B140003E8120A9B80DC222274FC55C94403F5C9AFC974FB5FF5C943C90880FE2236
:0E0B320022900000229000002290000022225B
:200B400053F40153F402C290C29143FE0143FE0222AFBE74FB5FF5BEE5BE30E6FB0053C6FD
:200B6000F8AFC674805FF5C643BE042290DF0074FFF090DF01E4F090DF0214F090DF03E4F2
:200B8000F090DF04F090DF05F090DF06F090DF077406F090DF08E4F090DF097426F090DF9D
:200BA0000A7430F090DF0BE4F090DF0C7459F090DF0D7466F090DF0E03F090DF0F7462F017
:200BC00090DF10741AF090DF117413F090DF127407F090DF137430F090DF1403F090DF1525
:200BE00014F090DF16746CF090DF177403F090DF187440F090DF197491F090DF1A7456F0C4
:200C000090DF1B7412F090DF1C74E9F090DF1D742AF090DF1EE4F090DF1F741FF090DF23DE
:200C20007488F090DF247431F090DF257409F090DF27E4F090DF28F090DF29F090DF2AF09D
:200C400090DF2BF090DF2C7452F090DF2DE4F090DF2EF0C2A8227E007F00EE24E7F582EFD4
:200C60003404F583E4F0EE2467F582EF3405F583E4F00EBE00010FC3EE9480EF6480948004
:160C800040D89005E7E4F0A3F09005E9F0A3F09005EBF0A3F0223D
:200C9600C020C0E0C0F0C082C083C007C006C005C004C003C002C001C000C0D075D0007523
:200CB6008A0053E8F790024A7401F0E4A3F0900248F0A3F07EFF7FFF001EBEFF011FEE4F1A
:200CD60070F630921090024AE4F0A3F09002487420F0E4A3F0900248E02401F0A3E0340028
:200CF600F0900248E0FEA3E0FFC3EE9420EF6480948040C090024AE0FEA3E0FFBE013ABF74
:200D160000379006F3E0FFBF010F9006F3E4F0D29190024C7413F0800E9006F37401F0C2FC
:200D36009190024C7403F09002447401F0E4A3F090024C75F000120B33758A00AFE874FB7D
:200D56005FF5E8D0D0D000D001D002D003D004D005D006D007D083D082D0F0D0E0D02032CE
:200D7600C2909006F37401F0758A0053E8F7438C02758D04D2AF439A1022C0E0C082C08360
:200D9600C007C0D075D00053E4FC758A00AFC074FD5FF5C09005EBE4F0A3F0D0D0D007D04D
:200DB60083D082D0E03253E4FC75E200AFB874FD5FF5B82275E2002253E4FC75DB7F75DA0C
:140DD600FF75E20075E544AFC074FD5FF5C0D2AF43B8022281
:200DEA00AFF0AE83E58290045CF0EEA3F0EFA3F090045CE0FDA3E0FEA3E0FF900458E0FB38
:200E0A00A3E0FC900218EBF0ECA3F090021A744EF07402A3F0E4A3F090021D744EF074048E
:200E2A00A3F0E4A3F08D828E838FF012058590044EE0FEA3E0FF90DF02EEF075E1049004E4
:200E4A005AE0FCA3E0FD7A007B00C3EA9CEB64808DF063F08095F0504B75E103780079000B
:200E6A00C004C00588048905C3EC9EED9FD005D004501A3089FD5388FDE8244EF582E9345D
:200E8A0002F583E0F5D908B800D60980D37800791018B8FF0119E84960030080F40ABA0078
:200EAA00A90B80A690DF0274FFF075E10475E10222AFF0AE83E582900462F0EEA3F0EFA376
:200ECA00F075E10475E10290DF0274FFF0900457F07E007F00C3EE94F4EF940150319004E8
:200EEA0057E0FD602A3089FDEE244EFCEF3402FD8C828D83E5D9F08C828D83E0FC90045745
:200F0A00F0AD8874FD5DF5880EBE00C90F80C61EBEFF011F90044EEEF0EFA3F075E1049046
:200F2A000462E0FBA3E0FCA3E0FD90045FE0F8A3E0F9A3E0FA900228EEF0EFA3F090022ACD
:200F4A00EBF0ECA3F0EDA3F090022DE8F0E9A3F0EAA3F090024E75F000120850900462E098
:200F6A00FDA3E0FEA3E0FF90045FE0FAA3E0FBA3E0FC8A828B838CF0121C03F8A3121C030A
:200F8A00F918B8FF0119900202E8F0E9A3F08D828E838FF0C004C003C0021200BF85820BB2
:200FAA00D002D003D0048A828B838CF0121C03FDA3121C03FEED24FFF8EE34FFF990046200
:200FCA00E0F508A3E0F509A3E0F50AE82508F8E93509F9AF0A888289838FF0121C03F8B5CE
:200FEA000B06758200021207ED24FEFDEE34FFFE90020CEDF0EEA3F0850882850983850AEE
:20100A00F0C004C003C002120205AE82AF83D002D003D0048E018A828B838CF0121C03F84B
:20102A00A3121C03FDC002C003C004E824FFFBED34FFFC900462E0F50CA3E0F50DA3E0F596
:20104A000EEB250CFBEC350DFCAA0E8B828C838AF0121C03FBE9B503028008D004D003D01B
:20106A00028044D004D003D002C002C003C0048F06E824FEF9ED34FFFFE9250CF9EF350DE3
:20108A00FCAF0E89828C838FF0121C03F9EEB501028008D004D003D002800CD004D003D020
:2010AA0002758200021207E824FEF8ED34FFFD900202E8F0EDA3F0850C82850D83850EF05C
:2010CA00C004C003C0021200BFAF82D002D003D0048A828B838CF0121C03FDA3121C03FEAC
:2010EA00ED24FEF8EE34FFF9C002C003C004E82508F8E93509F9AC0A888289838CF0121CD9
:20110A0003F8EFB500028008D004D003D0028023D004D003D002ED24FFF9EE34FFFF8A82D2
:20112A008B838CF0E9121BE8A3EF121BE8758200021207ED24FDFDEE34FFFE90020CEDF0BF
:20114A00EEA3F0850C82850D83850EF0C004C003C002120205AE82AF83D002D003D0048E8E
:20116A00018A828B838CF0121C03F8A3121C03FDC002C003C004E824FEFBED34FFFCEB255A
:20118A0008FBEC3509FCAA0A8B828C838AF0121C03FBE9B503028008D004D003D00280572B
:2011AA00D004D003D002C002C003C0048F06E824FDF9ED34FFFFE9250CF9EF350DFCAF0EB0
:2011CA0089828C838FF0121C03F9EEB501028008D004D003D002801FD004D003D00218B8B3
:2011EA00FF011D8A828B838CF0E8121BE8A3ED121BE8758200800612015775820122120B72
:20120A003BAE82AF837C007D00C3EC9EED9F5069EEC39CFAEF9DFBC374309AE49B500B9063
:20122A0004E57430F0E4A3F0800B9004E5EEC39CF0EF9DA3F0C006C007EC2465FAED34042F
:20124A00F97B009004E5E0F8A3E0FF900246E8F0EFA3F08A8289838BF0C007C006C005C066
:20126A0004120B37D004D005D006D00774302CFCE43DFDD007D00680907C007D00C3EC9EC9
:20128A00ED9F400302165C9005EBE0FAA3E0FBEA24E7FAEB3404FBEC2465F582ED3404F516
:2012AA0083E0F98A828B83F09005EBE0FAA3E0FB4A60030213C89004E7E0F9B9012E90058B
:2012CA00EB74012AF0E43BA3F0900450E4F0A3F0900452F0A3F0C007C006C005C004120DEF
:2012EA00CED004D005D006D007021654B981309005EB74012AF0E43BA3F09004507401F0E0
:20130A00E4A3F0900452F0A3F0C007C006C005C004120DCED004D005D006D007021654B965
:20132A00C1309005EB74012AF0E43BA3F0900450E4F0A3F090045204F0E4A3F0C007C006C8
:20134A00C005C004120DCED004D005D006D007021654B903028003B913339006F37401F01D
:20136A00C2919004E77403F09002447401F0E4A3F09004E775F000C007C006C005C0041274
:20138A000B33D004D005D006D007021654E960030216549004E77457F09002447401F0E436
:2013AA00A3F09004E775F000C007C006C005C004120B33D004D005D006D007021654BA01CD
:2013CA002CBB00299004E8E0900454F09005EB74012AF0E43BA3F0C007C006C005C00412D6
:2013EA000DCAD004D005D006D007021654BA0233BB00309004E9E0F9900455F0E93395E0B0
:20140A00A3F09005EB74012AF0E43BA3F0C007C006C005C004120DCAD004D005D006D00719
:20142A00021654C374029A74808BF063F08095F04003021654C007C006C005C004120DCAEE
:20144A00D004D005D006D007900454E0FB3395E0FA74022BFBE43AFA9005EBE0F8A3E0F93F
:20146A00E8B50306E9B502028003021649C007C006C005C004120DBCD004D005D006D007EF
:20148A00900450E0FAA3E0FBBA0162BB005FC004C0059005EBE02401F0A3E03400F0900595
:2014AA00EBE0FAA3E0FBEA24E7FAEB3404FB900454E0FD900202F0ED3395E0A3F09004EAE3
:2014CA0075F000C007C006C004C003C0021200BFAD82D002D003D004D006D0078A828B8387
:2014EA00EDF0900454E02401F0D005D004900452E0FAA3E0FBBA0105BB00028003021589A1
:20150A00C004C005900454E0FB90020CF0EB3395E0A3F09004EA75F000C007C006C005C0CC
:20152A0004120205AA82AB83D004D005D006D0079005EBE02401F0A3E03400F09005EBE058
:20154A00FCA3E0FDEC24E7F582ED3404F5838B05EDF09005EBE02401F0A3E03400F09005DC
:20156A00EBE0FCA3E0FDEC24E7F582ED3404F5837B00EAF0900454E02402F0D005D00490A3
:20158A000454E0FB9006F4F0EB3395E0A3F09004EA75F000C007C006C005C004121818E54E
:2015AA0082D004D005D006D0077060C004C005900454E0FB3395E0FA900455E0FCA3E0FD46
:2015CA00900458EBF0EAA3F090045AECF0EDA3F09004EA75F000C007C006C005C004120D5B
:2015EA00EA1201579002447403F0E4A3F09004E775F000120B33D004D005D006D0079005BE
:20160A00EBE4F0A3F0D005D004803F9004E8E4F09004E9F09002447403F0E4A3F09004E71A
:20162A0075F000C007C006C005C004120B33D004D005D006D0079005EBE4F0A3F0800B907D
:13164A0005EB740128F0E439A3F00CBC00010D02128722CD
:03000000020006F5
:03005F0002000399
:0300030002165D85
:20165D009006F0E4F0A3F0120C56120B40120B51120157120B6C120D76900243E4F0758219
:20167D0005120B3290045F74F0F07406A3F0E4A3F09005ED75F000120EBBAF829006F0E0D5
:20169D00FDA3E0FE4D60DD9006F2E4F0900567E0235401FCEFB5045F9005E7E0FBA3E0FC9C
:2016BD00EB24FEFBEC34FFFCEDB5034BEEB504479006F27401F07E009006F0E0FCA3E0FDBF
:2016DD00EEFA3395E0FBC3EA9CEB9D502AEE24EDF582E43405F583E0FD74022E2467F58289
:2016FD00E43405F583E0FCEDB5040280079006F2E4F080030E80C19006F2E0FEBE011B902F
:20171D0006ED7404F09002447401F0E4A3F09006ED75F000120B33021681EF70089005676B
:20173D007402F080069005677482F09006F0E0FEA3E0900568EEF07F009006F0E0FDA3E097
:20175D00FEEFFB3395E0FCC3EB9DEC9E501E74022F2467FBE43405FCEF24EDF582E43405C5
:20177D00F583E0FA8B828C83F00F80CD9005E774022DF0E43EA3F07F009005E7E0FDA3E073
:20179D00FEEFFB3395E0FCC3EB9DEC64808EF063F08095F04003021681EDC39BF9EE9CFA0B
:2017BD00C374309974808AF063F08095F05022EF2467F9E43405F87A009002447430F0E484
:2017DD00A3F0898288838AF0C007120B33D0078022EF2467F9E43405F87A00900244EDC3B1
:1B17FD009BF0EE9CA3F0898288838AF0C007120B33D00774302FFF0217962208
:0418180075820122B2
:20181C00AFF0AE83E5829006F6F0EEA3F0EFA3F0120A6EAE82AF839006F6E0FBA3E0FCA381
:20183C00E0FD74802BF8E43CF98D02888289838AF0E4121BE874812BF8E43CF98D0288829D
:20185C0089838AF0E4121BE874822BFBE43CFC8B828C838DF0E4121BE88E828F83120A7C69
:20187C0022AFF0AE83E5829006FDF0EEA3F0EFA3F0120A6E85823B85833C9006FDE0FBA34C
:20189C00E0FCA3E0FD74802BF8E43CF98D02888289838AF0121C03FF8F3E753F009006FC3E
:2018BC00E0F53DAE3D7F00EE253EFEEF353FFFC3EE9480EF6480948040030219A09006F9A6
:2018DC00E0F540A3E0F541A3E0F5427F00C3EF953D4003021984C000C001C00274822BF526
:2018FC0043E43CF5448D458543828544838545F0121C032BF546E43CF5478D48EF2540F8FA
:20191C00E43541FAAE4288828A838EF0121C03F88546828547838548F0121BE8854382856C
:20193C0044838545F0121C03FE0E8543828544838545F0EE121BE88543828544838545F02A
:20195C00121C03FEBE80028008D002D001D0008013D002D001D0008543828544838545F0AB
:20197C00E4121BE80F0218E9900700EFF0888289838AF0121C03FE2FFF888289838AF0123B
:20199C001BE88005900700E4F0853B82853C83120A7C900700E0F58222AFF0AE83E5829043
:2019BC000705F0EEA3F0EFA3F0120A6EAE82AF83900701E0FBA3E0FCA3E0FD900704E0F53E
:2019DC004F7900C3E9954F4003021AAAC006C007900705E0F549A3E0F54AA3E0F54B7480CA
:2019FC002549F8E4354AFEAF4B88828E838FF0121C03F8C3E998D007D0064003021AAAC08D
:201A1C0006C007E92BF550E43CF5518D5274812549F54CE4354AF54D854B4E854C82854DB3
:201A3C0083854EF0121C032549FAE4354AFEAF4B8A828E838FF0121C03FA855082855183D9
:201A5C008552F0121BE8854C82854D83854EF0121C03FF0F854C82854D83854EF0EF121B5D
:201A7C00E8854C82854D83854EF0121C03FFBF80028006D007D0068011D007D006854C82C2
:201A9C00854D83854EF0E4121BE8090219DF900705E0FBA3E0FCA3E0FD74802BFBE43CFC6A
:201ABC008B828C838DF0121C03C3998B828C838DF0121BE88E828F83C001120A7CD0018961
:201ADC008222AFF0AE83E58290070CF0EEA3F0EFA3F0120A6EAE82AF8390070CE0FBA3E08C
:201AFC00FCA3E0FD74812BF8E43CF98D02888289838AF0121C03F890070FF074802BF558D3
:201B1C00E43CF5598D5A900708E0F553A3E0F554A3E0F55590070BE0F556755700C3E5575C
:201B3C009556506FC006C007855882855983855AF0121C03FFC3E5579FD007D0065054C0E4
:201B5C0006C007E5572553F55BE43554F55C85555D90070FE0F92BF8E43CFE8D0788828EB7
:201B7C00838FF0121C03F8855B82855C83855DF0121BE890070FE904F0E0FFBF8002800648
:201B9C00D007D0068009D007D00690070FE4F00557808A8E828F83120A7C85578222AFF08D
:201BBC00AE83E582900710F0EEA3F0EFA3F0900710E0FDA3E0FEA3E0FF74802DFDE43EFE12
:0C1BDC008D828E838FF0121C03F5822294
:06003500E478FFF6D8FD9F
:200013007900E94400601B7A00901C237814759307E493F2A308B800020593D9F4DAF27554
:0200330093FF39
:1B1BE80020F71130F6138883A88220F509F6A8837583002280FEF280F5F022FC
:20003B007800E84400600A7901759300E4F309D8FC7813E84407600C7908900001E4F0A3AE
:04005B00D8FCD9FAFA
:0D00060075815D121C1FE58260030200037E
:1C1C030020F71430F6148883A88220F507E6A88375830022E280F7E49322E022F0
:041C1F0075820022A8
:00000001FF
